:1000000012C02CC02BC02AC029C028C027C026C0BF
:1000100025C024C03EC1BAC1E5C120C01FC01EC05A
:100020001DC01CC01BC011241FBECFE5D4E0DEBF25
:10003000CDBF10E0A0E6B0E0EEEEFBE002C0059020
:100040000D92A037B107D9F720E0A0E7B0E001C0DA
:100050001D92A23CB207E1F743D1C7C5D1CF8F9221
:100060009F92AF92BF92CF92DF92EF92FF920F9347
:100070001F93CF93DF93C62FA82E681708F4A62EE0
:100080008C2F86958A1508F050C08C2F8A19A82EBF
:10009000F1F18824839401C0812CB12C00E010E0A0
:1000A000EC2EF12CCC24C394D12C912CD92D61D2DF
:1000B000B701F0D1982FCC2319F1A60102C0440F4B
:1000C000551F8A95E2F79A0120233123232B71F0E3
:1000D000292D0FC0A601092E02C0440F551F0A94F6
:1000E000E2F7BA0160237123672B19F4042B152B57
:1000F00007C09F5F9C1708F09D2F2F5F2C13EACF3E
:10010000B394BA14A0F281E0881213C002C000E0D8
:1001100010E08FEF9FEF02C0880F991FCA95E2F79A
:10012000809590950827192704C0A110B5CF00E04D
:1001300010E0C801DF91CF911F910F91FF90EF90D8
:10014000DF90CF90BF90AF909F908F9008956F9267
:100150007F928F929F92AF92BF92CF92DF92EF9257
:10016000FF920F931F93CF93DF93CDB7DEB72C97FA
:100170000FB6F894DEBF0FBECDBFB82E162F69E0C4
:10018000812F8F706CDF6C0166E0812F82958F70FC
:1001900066DF7C0169E08B2D8F7061DF8C0166E08A
:1001A0008B2D82958F705BDF5C01FE01329640E003
:1001B00050E020E030E062E070E088248394912CED
:1001C000DF0111973501022E02C0769467940A94DC
:1001D000E2F7862D8370782EC401062E02C0880FA8
:1001E000991F0A94E2F787298C93C601042E02C056
:1001F000969587950A94E2F7A82FA770C801042E58
:1002000002C0969587950A94E2F7982F9295990FD8
:10021000907EA92BC701022E02C0969587950A945D
:10022000E2F7982F9370990F990F990F8A2F892BC6
:1002300080836F5F7F4F2E5F3F4F4D5F5F4F3296E2
:100240002630310509F0BCCF3FB7F894FE01319656
:1002500080E090E02191DC01A059BF4F2C930196E2
:1002600086309105B9F73FBF2C960FB6F894DEBFE4
:100270000FBECDBFDF91CF911F910F91FF90EF90F7
:10028000DF90CF90BF90AF909F908F907F906F90B6
:1002900008951F920F920FB60F9211248F93EF9330
:1002A000FF93E0917C00F0E0E059FF4F80818FB92F
:1002B00080917C0080FD02C0C29AC29880917C002F
:1002C0008F5F863018F480937C0002C010927C000F
:1002D000FF91EF918F910F900FBE0F901F90189587
:1002E000CF93DF93CDB7DEB760970FB6F894DEBF3C
:1002F0000FBECDBFBA9ABD9ABB9A8DB1836D8DB931
:100300001FB883E390E093D03DD07894712C812C7A
:100310000F2EF4E6EF2EF0E0FF2EF02D68949924D6
:1003200094F8CE0101966C01A82EBD2C67E381E202
:100330000EDF072D182DF801E059FF4F20811F9285
:100340002F93FF92EF921F929F92DF92CF9220D134
:100350008A2D9B2D91D00F5F1F4F0FB6F894DEBFF3
:100360000FBECDBF0630110531F78AE690E084D08C
:100370009FEF21E18AE7915020408040E1F700C0E3
:100380000000D4CF11B880E280B908951F920F9277
:100390000FB60F9211242F938F939F93EF93FF9398
:1003A0008BB12CB18C71E0917F00EF5FEF71909178
:1003B0007E00E91739F0E0937F00F0E0EE57FF4F41
:1003C000208301C082E090917D00892B80937D0085
:1003D000FF91EF919F918F912F910F900FBE0F90F2
:1003E0001F9018951F920F920FB60F9211248F93A2
:1003F0009F93EF93FF9390918100809180009817D5
:1004000061F0E0918000EF5FEF71E0938000F0E039
:10041000EE55FF4F80818CB901C05598FF91EF9147
:100420009F918F910F900FBE0F901F901895109273
:1004300081001092800010927F0010927E0099231C
:1004400014F422E02BB9907890BD89B988E98AB973
:1004500086E880BD0895209181002F5F2F719091D3
:1004600080002917E1F3E22FF0E0EE55FF4F808383
:1004700020938100559A0895CF93DF93EC018881F2
:10048000882329F02196E7DF89918111FCCFDF9144
:10049000CF91089597FB072E16F4009406D077FDB0
:1004A00008D00BD007FC05D03EF4909581959F4F66
:1004B0000895709561957F4F0895AA1BBB1B51E16C
:1004C00007C0AA1FBB1FA617B70710F0A61BB70BC4
:1004D000881F991F5A95A9F780959095BC01CD0169
:1004E00008958F929F92AF92BF92CF92DF92EF9238
:1004F000FF92CF93DF93EC01688179818A819B81A0
:10050000611571058105910521F464E279ED8BE5B2
:1005100097E02DE133EF41E050E0D6D249015A0196
:100520009B01AC01A7EAB1E4EBD26B017C01ACEE1C
:10053000B4EFA5019401F0D2DC01CB018C0D9D1D1F
:10054000AE1DBF1DB7FF03C00197A109B048888346
:100550009983AA83BB839F77DF91CF91FF90EF9020
:10056000DF90CF90BF90AF909F908F900895B9DFAC
:10057000089580E690E0B5DF0895A0E0B0E08093B4
:10058000600090936100A0936200B09363000895AF
:10059000AEE0B0E0EDECF2E0D1C20D891E898F89AA
:1005A000988D26E02C831A83098397FF02C080E090
:1005B00090E801979E838D83AE01455E5F4F698D04
:1005C0007A8DCE01019611D04D815E8157FD0AC012
:1005D0002F813885421753070CF49A01F801E20F76
:1005E000F31F10822E96E4E0C5C2ACE0B0E0EAEF63
:1005F000F2E096C27C016B018A01FC01178216822F
:10060000838181FFB0C1CE0101964C01F701938136
:10061000F60193FD859193FF81916F01882309F481
:100620009EC1853239F493FD859193FF81916F01CD
:10063000853221F4B70190E0B1D1E8CF512C312CB3
:1006400020E02032A0F48B3269F030F4803259F08F
:10065000833269F420612CC08D3239F0803339F453
:10066000216026C02260246023C0286021C027FDAD
:1006700027C030ED380F3A3078F426FF06C0FAE094
:100680005F9E300D1124532E13C08AE0389E300D2A
:100690001124332E20620CC08E3221F426FD5FC15E
:1006A000206406C08C3611F4206802C0883641F4FC
:1006B000F60193FD859193FF81916F018111C1CF67
:1006C000982F9F7D9554933028F40C5F1F4FFFE3C4
:1006D000F9830DC0833631F0833771F0833509F02B
:1006E00057C021C0F801808189830E5F1F4F4424C9
:1006F0004394512C540114C03801F2E06F0E711C68
:10070000F801A080B18026FF03C0652D70E002C013
:100710006FEF7FEFC5012C8736D12C0183012C852B
:100720002F77222E16C03801F2E06F0E711CF801EF
:10073000A080B18026FF03C0652D70E002C06FEF7E
:100740007FEFC5012C8714D12C012C852068222E27
:10075000830123FC19C0832D90E048165906A0F4AC
:10076000B70180E290E01AD13A94F5CFF50127FC69
:10077000859127FE81915F01B70190E00FD1311083
:100780003A94F1E04F1A51084114510479F7DEC050
:10079000843611F0893631F5F80127FF07C06081F2
:1007A0007181828193810C5F1F4F08C060817181CC
:1007B000072E000C880B990B0E5F1F4F2F76722EA1
:1007C00097FF09C090958095709561957F4F8F4FE9
:1007D0009F4F2068722E2AE030E0A40117D1A82E86
:1007E000A81843C0853729F42F7EB22E2AE030E0C6
:1007F00025C0F22FF97FBF2E8F36C1F018F488354F
:1008000079F0ADC0803719F0883721F0A8C02F2FBC
:100810002061B22EB4FE0DC08B2D8460B82E09C0AD
:1008200024FF0AC09F2F9660B92E06C028E030E052
:1008300005C020E130E002C020E132E0F801B7FE5F
:1008400007C060817181828193810C5F1F4F06C058
:100850006081718180E090E00E5F1F4FA401D6D0CF
:10086000A82EA818FB2DFF777F2E76FE0BC0372D04
:100870003E7FA51450F474FE0AC072FC08C0372DE8
:100880003E7E05C0BA2C372D03C0BA2C01C0B52C52
:1008900034FF0DC0FE01EA0DF11D8081803311F49B
:1008A000397E09C032FF06C0B394B39404C0832FCD
:1008B000867809F0B39433FD12C030FF06C05A2C7D
:1008C000B31418F4530C5B18B32CB31460F4B701D1
:1008D00080E290E03C8762D0B3943C85F6CFB314BD
:1008E00010F43B1801C0312C34FF11C0B70180E374
:1008F00090E03C8753D03C8532FF16C031FD03C0E9
:1009000088E790E002C088E590E0B7010CC0832F33
:10091000867851F031FF02C08BE201C080E237FDE2
:100920008DE2B70190E03AD0A51430F4B70180E32E
:1009300090E034D05A94F8CFAA94F401EA0DF11D56
:100940008081B70190E02AD0A110F6CF332009F4BE
:100950005DCEB70180E290E021D03A94F7CFF70165
:100960008681978102C08FEF9FEF2C96E2E1F4C061
:10097000FC010590615070400110D8F7809590956A
:100980008E0F9F1F0895FC0161507040019001106F
:10099000D8F7809590958E0F9F1F08950F931F9302
:1009A000CF93DF93FB01238121FD03C08FEF9FEFE6
:1009B00028C022FF16C04681578124813581421705
:1009C000530744F4A081B1819D012F5F3F4F3183D4
:1009D00020838C93268137812F5F3F4F3783268377
:1009E00010C0EB01092F182F0084F185E02D099527
:1009F000892BE1F68E819F8101969F838E83812FC3
:100A0000902FDF91CF911F910F910895FA01AA279E
:100A1000283051F1203181F1E8946F936E7F6E5F41
:100A20007F4F8F4F9F4FAF4FB1E03ED0B4E03CD0EF
:100A3000670F781F891F9A1FA11D680F791F8A1FD2
:100A4000911DA11D6A0F711D811D911DA11D20D039
:100A500009F468943F912AE0269F11243019305DF3
:100A60003193DEF6CF010895462F4770405D4193E4
:100A7000B3E00FD0C9F7F6CF462F4F70405D4A3331
:100A800018F0495D31FD4052419302D0A9F7EACFF9
:100A9000B4E0A6959795879577956795BA95C9F728
:100AA00000976105710508959B01AC010A2E06941B
:100AB0005795479537952795BA95C9F7620F731FD4
:100AC000841F951FA01D0895052E97FB16F4009412
:100AD0000FD057FD05D05BD007FC02D046F408C00C
:100AE00050954095309521953F4F4F4F5F4F08955A
:100AF00090958095709561957F4F8F4F9F4F08958A
:100B000068D0A59F900DB49F900DA49F800D911D5E
:100B100011240895B7FFF4CFF3DF821B930B0895E0
:100B20002F923F924F925F926F927F928F929F92FD
:100B3000AF92BF92CF92DF92EF92FF920F931F93EB
:100B4000CF93DF93CDB7DEB7CA1BDB0B0FB6F8949C
:100B5000DEBF0FBECDBF09942A88398848885F84DC
:100B60006E847D848C849B84AA84B984C884DF804D
:100B7000EE80FD800C811B81AA81B981CE0FD11D31
:100B80000FB6F894DEBF0FBECDBFED010895A1E210
:100B90001A2EAA1BBB1BFD010DC0AA1FBB1FEE1FF7
:100BA000FF1FA217B307E407F50720F0A21BB30B42
:100BB000E40BF50B661F771F881F991F1A9469F7BE
:100BC00060957095809590959B01AC01BD01CF011A
:100BD0000895A29FB001B39FC001A39F01D0B29F0F
:0E0BE000700D811D1124911D0895F894FFCF12
:100BEE0001000000252E327820000A0D0A0D0000AB
:00000001FF
